:020000040000FA
:100000000C945D000C9485000C9485000C94850084
:100010000C9485000C9485000C9485000C9485004C
:100020000C9485000C9485000C9485000C9485003C
:100030000C9485000C9485000C9485000C9485002C
:100040000C946E020C9485000C94DE020C94B802A1
:100050000C9485000C9485000C9485000C9485000C
:100060000C9485000C94850000000008000201003B
:100070000003040700000000000000000000000072
:10008000250028002B0000000000240027002A0083
:10009000040404040404040402020202020203032E
:1000A0000303030301020408102040800102040836
:1000B00010200102040810208A0411241FBECFEF73
:1000C000D8E0DEBFCDBF11E0A0E0B1E0E6EAF9E0A4
:1000D00002C005900D92A831B107D9F721E0A8E13F
:1000E000B1E001C01D92A83CB207E1F710E0CDE5F8
:1000F000D0E004C02197FE010E94CB04CC35D1078B
:10010000C9F70E9410030C94D1040C9400003FB76F
:10011000F8948091C4019091C501A091C601B0915D
:10012000C70126B5A89B05C02F3F19F00196A11D58
:10013000B11D3FBFBA2FA92F982F8827BC01CD0131
:10014000620F711D811D911D42E0660F771F881F90
:10015000991F4A95D1F708958F929F92AF92BF92BF
:10016000CF92DF92EF92FF926B017C010E94870099
:100170004B015C01C114D104E104F104B9F00E9407
:100180008700681979098A099B09683E73408105CF
:10019000910580F321E0C21AD108E108F10888EE48
:1001A000880E83E0981EA11CB11CE4CFFF90EF9055
:1001B000DF90CF90BF90AF909F908F900895AF92B7
:1001C000BF92CF92DF92EF92FF920F931F93CF9344
:1001D000DF936C017B018B01040F151FEB015E01A6
:1001E000AE18BF08C017D10759F06991D601ED913B
:1001F000FC910190F081E02DC6010995892B79F7DA
:10020000C501DF91CF911F910F91FF90EF90DF908B
:10021000CF90BF90AF900895FC01538D448D252F52
:1002200030E0842F90E0821B930B541710F0CF9690
:10023000089501970895FC01918D828D981761F0C2
:10024000A28DAE0FBF2FB11D5D968C91928D9F5FD9
:100250009F73928F90E008958FEF9FEF0895FC01B8
:10026000918D828D981731F0828DE80FF11D858D6B
:1002700090E008958FEF9FEF0895FC01918D228DFE
:10028000892F90E0805C9F4F821B91098F73992783
:10029000089588E191E00E943D0121E0892B09F455
:1002A00020E0822F089580E090E0892B29F00E94C1
:1002B000490181110C9400000895FC01A48DA80F40
:1002C000B92FB11DA35ABF4F2C91848D90E0019698
:1002D0008F739927848FA689B7892C93A089B189B8
:1002E0008C91837080648C93938D848D981306C059
:1002F0000288F389E02D80818F7D80830895EF92BD
:10030000FF920F931F93CF93DF93EC0181E0888FCF
:100310009B8D8C8D98131AC0E889F989808185FF9F
:1003200015C09FB7F894EE89FF896083E889F98941
:1003300080818370806480839FBF81E090E0DF9143
:10034000CF911F910F91FF90EF900895F62E0B8D96
:1003500010E00F5F1F4F0F731127E02E8C8D8E1151
:100360000CC00FB607FCFACFE889F989808185FFB8
:10037000F5CFCE010E945D01F1CFEB8DEC0FFD2F8B
:10038000F11DE35AFF4FF0829FB7F8940B8FEA8973
:10039000FB8980818062CFCFCF93DF93EC01888D82
:1003A0008823B9F0AA89BB89E889F9898C9185FDF0
:1003B00003C0808186FD0DC00FB607FCF7CF8C917E
:1003C00085FFF2CF808185FFEDCFCE010E945D01D8
:1003D000E9CFDF91CF910895CF93DF931F92CDB7EF
:1003E000DEB790910001882309F44BC0892F880F54
:1003F000983009F481E080930001A3E1B1E030E09E
:1004000020E08091000190E0022E02C09595879532
:100410000A94E2F78170898369818D9190E0FC01F3
:10042000E859FF4F5491FC01EC55FF4F4491FC01FA
:10043000E057FF4FE491EE23D1F0552339F05330CC
:1004400099F140F55130B1F15230C1F1F0E0EE0FC9
:10045000FF1FE458FF4F859194915FB7F894FC011A
:10046000611139C060814095462340835FBF2F5F93
:100470003F4F2430310509F0C4CF0F90DF91CF9169
:10048000089588E0913009F4B6CF892F90E09595D2
:100490008795B1CF5730A9F05830C9F05430B1F634
:1004A000809180008F7D03C0809180008F77809342
:1004B0008000CCCF84B58F7784BDC8CF84B58F7DC5
:1004C000FBCF8091B0008F778093B000BFCF809139
:1004D000B0008F7DF9CF6081462BC7CF1F920F925E
:1004E0000FB60F9211242F933F938F939F93AF9347
:1004F000BF938091C0019091C101A091C201B091C0
:10050000C3013091BF0123E0230F2D3758F5019629
:10051000A11DB11D2093BF018093C0019093C10123
:10052000A093C201B093C3018091C4019091C50111
:10053000A091C601B091C7010196A11DB11D809384
:10054000C4019093C501A093C601B093C701BF91A8
:10055000AF919F918F913F912F910F900FBE0F9070
:100560001F90189526E8230F0296A11DB11DD2CF2A
:100570001F920F920FB60F9211242F933F934F9318
:100580005F936F937F938F939F93AF93BF93EF93FB
:10059000FF9388E191E00E945D01FF91EF91BF918F
:1005A000AF919F918F917F916F915F914F913F910B
:1005B0002F910F900FBE0F901F9018951F920F92C2
:1005C0000FB60F9211242F938F939F93EF93FF9366
:1005D000E0912801F09129018081E0912E01F091B4
:1005E0002F0182FD1BC09081809131018F5F8F733D
:1005F00020913201821741F0E0913101F0E0E85E94
:10060000FE4F958F80933101FF91EF919F918F91D4
:100610002F910F900FBE0F901F9018958081F4CFEF
:10062000CF93DF9300D0CDB7DEB7789484B58260E6
:1006300084BD84B5816084BD85B5826085BD85B586
:10064000816085BD80916E00816080936E00109204
:10065000810080918100826080938100809181007F
:100660008160809381008091800081608093800010
:100670008091B10084608093B1008091B00081606E
:100680008093B00080917A00846080937A0080919A
:100690007A00826080937A0080917A0081608093F2
:1006A0007A0080917A00806880937A001092C1006D
:1006B000E0912801F091290182E08083E0912401FA
:1006C000F09125011082E0912601F09127018FEC35
:1006D000808310923001E0912C01F0912D0186E091
:1006E0008083E0912A01F0912B01808180618083D9
:1006F000E0912A01F0912B01808188608083E09154
:100700002A01F0912B01808180688083E0912A0189
:10071000F0912B0180818F7D8083E2EBF0E02491CA
:10072000EEE9F0E084918823C9F090E0880F991FEA
:10073000FC01EA57FF4F45915491FC01E458FF4FEB
:10074000A591B4919FB7F894FA01808120958223F6
:1007500080838C91E22FE823EC939FBFA3E1B1E06B
:100760008D9190E0FC01EC55FF4F249180579F4FF5
:10077000FC0184918823A1F090E0880F991FFC016F
:10078000EA57FF4F45915491FC01E458FF4F859182
:1007900094918FB7F894FA019081922B90838FBF38
:1007A000F1E0A731BF07E1F66AE0262E312C7AE0AE
:1007B000472E512CE0E06E2EE0E07E2E45E030E04A
:1007C00020E01A8219828AE090E490937C00909154
:1007D0007A00906490937A0090917A0096FDFCCF15
:1007E000E0917800F091790069817A816E0F7F1F26
:1007F0007A836983815041F789819A81B1010E948E
:10080000B7047A83698389819A81880F991F280F99
:10081000391F4150B1F6C901B2010E94B7048B01E2
:10082000000F111F8091B701811107C01093B6010D
:100830000093B501E1E0E093B701E090B501F090DD
:10084000B601C7010B970817190728F046968017BD
:10085000910708F04DC04801FBE08F1A91088E14F3
:100860009F04F8F4C8010B968E159F05D0F467011C
:10087000C01AD10AD7FE03C0D194C194D108B12CBB
:10088000A12CCA14DB0469F080E00E94EC016AE04C
:1008900070E080E090E00E94AC008FEFA81AB80AE8
:1008A000F0CFE814F90400F5C8010B96E816F90634
:1008B000D8F4F801EE19FF097F01F7FF03C0F194A6
:1008C000E194F108D12CC12CEC14FD0469F081E015
:1008D0000E94EC016AE070E080E090E00E94AC00D1
:1008E000FFEFCF1ADF0AF0CF1093B6010093B501E6
:1008F00069E170E080E090E00E94AC006114710456
:1009000009F45CCF0E944901882309F457CF0E9463
:10091000000054CFE8E1F1E01382128288EE93E008
:10092000A0E0B0E084839583A683B78385E091E05F
:100930009183808385EC90E09587848784EC90E0B8
:100940009787868780EC90E0918B808B81EC90E09C
:10095000938B828B82EC90E0958B848B86EC90E07D
:10096000978B868B118E128E138E148E0895AA1B70
:10097000BB1B51E107C0AA1FBB1FA617B70710F08A
:10098000A61BB70B881F991F5A95A9F780959095BC
:10099000BC01CD010895EE0FFF1F0590F491E02DED
:1009A0000994F894FFCF01000000007F01DF000CE4
:0E09B00001CC013D011B012F010B0A090800BB
:107E0000112484B714BE81FFF0D085E080938100F7
:107E100082E08093C00088E18093C10086E0809377
:107E2000C20080E18093C4008EE0C9D0259A86E02C
:107E300020E33CEF91E0309385002093840096BBD3
:107E4000B09BFECF1D9AA8958150A9F7CC24DD24C4
:107E500088248394B5E0AB2EA1E19A2EF3E0BF2EE7
:107E6000A2D0813461F49FD0082FAFD0023811F036
:107E7000013811F484E001C083E08DD089C08234E0
:107E800011F484E103C0853419F485E0A6D080C0E4
:107E9000853579F488D0E82EFF2485D0082F10E0AE
:107EA000102F00270E291F29000F111F8ED06801E7
:107EB0006FC0863521F484E090D080E0DECF843638
:107EC00009F040C070D06FD0082F6DD080E0C81688
:107ED00080E7D80618F4F601B7BEE895C0E0D1E017
:107EE00062D089930C17E1F7F0E0CF16F0E7DF06D8
:107EF00018F0F601B7BEE89568D007B600FCFDCFD4
:107F0000A601A0E0B1E02C9130E011968C91119780
:107F100090E0982F8827822B932B1296FA010C0160
:107F200087BEE89511244E5F5F4FF1E0A038BF0790
:107F300051F7F601A7BEE89507B600FCFDCF97BE46
:107F4000E89526C08437B1F42ED02DD0F82E2BD052
:107F50003CD0F601EF2C8F010F5F1F4F84911BD097
:107F6000EA94F801C1F70894C11CD11CFA94CF0C13
:107F7000D11C0EC0853739F428D08EE10CD085E9AC
:107F80000AD08FE07ACF813511F488E018D01DD067
:107F900080E101D065CF982F8091C00085FFFCCF94
:107FA0009093C60008958091C00087FFFCCF809118
:107FB000C00084FD01C0A8958091C6000895E0E648
:107FC000F0E098E1908380830895EDDF803219F02E
:107FD00088E0F5DFFFCF84E1DECF1F93182FE3DFCA
:107FE0001150E9F7F2DF1F91089580E0E8DFEE27F6
:047FF000FF270994CA
:027FFE00040479
:00000001FF
